{
  "address": "0xB4798E2DDb8cF1271b8DDd36C49Ec76edc2CC598",
  "abi": [
    {
      "inputs": [
        {
          "internalType": "address",
          "name": "_owner",
          "type": "address"
        }
      ],
      "stateMutability": "nonpayable",
      "type": "constructor"
    },
    {
      "anonymous": false,
      "inputs": [
        {
          "indexed": true,
          "internalType": "address",
          "name": "greetingSetter",
          "type": "address"
        },
        {
          "indexed": false,
          "internalType": "string",
          "name": "newGreeting",
          "type": "string"
        },
        {
          "indexed": false,
          "internalType": "bool",
          "name": "premium",
          "type": "bool"
        },
        {
          "indexed": false,
          "internalType": "uint256",
          "name": "value",
          "type": "uint256"
        }
      ],
      "name": "GreetingChange",
      "type": "event"
    },
    {
      "inputs": [],
      "name": "greeting",
      "outputs": [
        {
          "internalType": "string",
          "name": "",
          "type": "string"
        }
      ],
      "stateMutability": "view",
      "type": "function"
    },
    {
      "inputs": [],
      "name": "owner",
      "outputs": [
        {
          "internalType": "address",
          "name": "",
          "type": "address"
        }
      ],
      "stateMutability": "view",
      "type": "function"
    },
    {
      "inputs": [],
      "name": "premium",
      "outputs": [
        {
          "internalType": "bool",
          "name": "",
          "type": "bool"
        }
      ],
      "stateMutability": "view",
      "type": "function"
    },
    {
      "inputs": [
        {
          "internalType": "string",
          "name": "_newGreeting",
          "type": "string"
        }
      ],
      "name": "setGreeting",
      "outputs": [],
      "stateMutability": "payable",
      "type": "function"
    },
    {
      "inputs": [
        {
          "internalType": "address",
          "name": "_newOwner",
          "type": "address"
        }
      ],
      "name": "setNewOwner",
      "outputs": [],
      "stateMutability": "nonpayable",
      "type": "function"
    },
    {
      "inputs": [],
      "name": "totalCounter",
      "outputs": [
        {
          "internalType": "uint256",
          "name": "",
          "type": "uint256"
        }
      ],
      "stateMutability": "view",
      "type": "function"
    },
    {
      "inputs": [
        {
          "internalType": "address",
          "name": "",
          "type": "address"
        }
      ],
      "name": "userGreetingCounter",
      "outputs": [
        {
          "internalType": "uint256",
          "name": "",
          "type": "uint256"
        }
      ],
      "stateMutability": "view",
      "type": "function"
    },
    {
      "inputs": [],
      "name": "withdraw",
      "outputs": [],
      "stateMutability": "nonpayable",
      "type": "function"
    },
    {
      "stateMutability": "payable",
      "type": "receive"
    }
  ],
  "transactionHash": "0xef217f57160610967fa3b5f390802c3f37f05aea75d247cdf46c9f1dbf08c1d0",
  "args": [
    "0x7965E99379Cb9f2d4816aB35f39D60913C12C92d"
  ],
  "numDeployments": 3,
  "solcInputHash": "0e70937d98f227e1af0a36b67652cde5",
  "bytecode": "0x60806040526040518060600160405280602781526020016200150c60279139600190816200002e91906200039c565b506000600260006101000a81548160ff02191690831515021790555060006003553480156200005c57600080fd5b5060405162001533380380620015338339818101604052810190620000829190620004ed565b806000806101000a81548173ffffffffffffffffffffffffffffffffffffffff021916908373ffffffffffffffffffffffffffffffffffffffff160217905550607b6004600073a15b8a838eca5e8dba45f08802b18400e1ec7a5473ffffffffffffffffffffffffffffffffffffffff1673ffffffffffffffffffffffffffffffffffffffff16815260200190815260200160002081905550506200051f565b600081519050919050565b7f4e487b7100000000000000000000000000000000000000000000000000000000600052604160045260246000fd5b7f4e487b7100000000000000000000000000000000000000000000000000000000600052602260045260246000fd5b60006002820490506001821680620001a457607f821691505b602082108103620001ba57620001b96200015c565b5b50919050565b60008190508160005260206000209050919050565b60006020601f8301049050919050565b600082821b905092915050565b600060088302620002247fffffffffffffffffffffffffffffffffffffffffffffffffffffffffffffffff82620001e5565b620002308683620001e5565b95508019841693508086168417925050509392505050565b6000819050919050565b6000819050919050565b60006200027d62000277620002718462000248565b62000252565b62000248565b9050919050565b6000819050919050565b62000299836200025c565b620002b1620002a88262000284565b848454620001f2565b825550505050565b600090565b620002c8620002b9565b620002d58184846200028e565b505050565b5b81811015620002fd57620002f1600082620002be565b600181019050620002db565b5050565b601f8211156200034c576200031681620001c0565b6200032184620001d5565b8101602085101562000331578190505b620003496200034085620001d5565b830182620002da565b50505b505050565b600082821c905092915050565b6000620003716000198460080262000351565b1980831691505092915050565b60006200038c83836200035e565b9150826002028217905092915050565b620003a78262000122565b67ffffffffffffffff811115620003c357620003c26200012d565b5b620003cf82546200018b565b620003dc82828562000301565b600060209050601f831160018114620004145760008415620003ff578287015190505b6200040b85826200037e565b8655506200047b565b601f1984166200042486620001c0565b60005b828110156200044e5784890151825560018201915060208501945060208101905062000427565b868310156200046e57848901516200046a601f8916826200035e565b8355505b6001600288020188555050505b505050505050565b600080fd5b600073ffffffffffffffffffffffffffffffffffffffff82169050919050565b6000620004b58262000488565b9050919050565b620004c781620004a8565b8114620004d357600080fd5b50565b600081519050620004e781620004bc565b92915050565b60006020828403121562000506576200050562000483565b5b60006200051684828501620004d6565b91505092915050565b610fdd806200052f6000396000f3fe60806040526004361061007f5760003560e01c8063cea49c3c1161004e578063cea49c3c14610114578063e0a73a9314610151578063ef690cc01461017c578063f5a1f5b4146101a757610086565b80633ccfd60b1461008b5780638da5cb5b146100a257806397feba9d146100cd578063a4136862146100f857610086565b3661008657005b600080fd5b34801561009757600080fd5b506100a06101d0565b005b3480156100ae57600080fd5b506100b761032e565b6040516100c49190610753565b60405180910390f35b3480156100d957600080fd5b506100e2610352565b6040516100ef9190610787565b60405180910390f35b610112600480360381019061010d91906108fc565b610358565b005b34801561012057600080fd5b5061013b60048036038101906101369190610971565b610499565b6040516101489190610787565b60405180910390f35b34801561015d57600080fd5b506101666104b1565b60405161017391906109b9565b60405180910390f35b34801561018857600080fd5b506101916104c4565b60405161019e9190610a53565b60405180910390f35b3480156101b357600080fd5b506101ce60048036038101906101c99190610971565b610552565b005b60008054906101000a900473ffffffffffffffffffffffffffffffffffffffff1673ffffffffffffffffffffffffffffffffffffffff163373ffffffffffffffffffffffffffffffffffffffff161461025e576040517f08c379a000000000000000000000000000000000000000000000000000000000815260040161025590610ac1565b60405180910390fd5b60008060009054906101000a900473ffffffffffffffffffffffffffffffffffffffff1673ffffffffffffffffffffffffffffffffffffffff16476040516102a590610b12565b60006040518083038185875af1925050503d80600081146102e2576040519150601f19603f3d011682016040523d82523d6000602084013e6102e7565b606091505b505090508061032b576040517f08c379a000000000000000000000000000000000000000000000000000000000815260040161032290610b73565b60405180910390fd5b50565b60008054906101000a900473ffffffffffffffffffffffffffffffffffffffff1681565b60035481565b61037b604051806060016040528060218152602001610f87602191398233610623565b806001908161038a9190610d9f565b5060016003600082825461039e9190610ea0565b925050819055506001600460003373ffffffffffffffffffffffffffffffffffffffff1673ffffffffffffffffffffffffffffffffffffffff16815260200190815260200160002060008282546103f59190610ea0565b925050819055506000341115610425576001600260006101000a81548160ff021916908315150217905550610441565b6000600260006101000a81548160ff0219169083151502179055505b3373ffffffffffffffffffffffffffffffffffffffff167f94cbd7e04dca26a7667654f6448b2ca0a40fec602118dc5fd8c82b9cf3c645ad82600034113460405161048e93929190610ed4565b60405180910390a250565b60046020528060005260406000206000915090505481565b600260009054906101000a900460ff1681565b600180546104d190610bc2565b80601f01602080910402602001604051908101604052809291908181526020018280546104fd90610bc2565b801561054a5780601f1061051f5761010080835404028352916020019161054a565b820191906000526020600020905b81548152906001019060200180831161052d57829003601f168201915b505050505081565b60008054906101000a900473ffffffffffffffffffffffffffffffffffffffff1673ffffffffffffffffffffffffffffffffffffffff163373ffffffffffffffffffffffffffffffffffffffff16146105e0576040517f08c379a00000000000000000000000000000000000000000000000000000000081526004016105d790610ac1565b60405180910390fd5b806000806101000a81548173ffffffffffffffffffffffffffffffffffffffff021916908373ffffffffffffffffffffffffffffffffffffffff16021790555050565b6106bd83838360405160240161063b93929190610f12565b6040516020818303038152906040527f95ed0195000000000000000000000000000000000000000000000000000000007bffffffffffffffffffffffffffffffffffffffffffffffffffffffff19166020820180517bffffffffffffffffffffffffffffffffffffffffffffffffffffffff83818316178352505050506106c2565b505050565b6106d9816106d16106dc6106fd565b63ffffffff16565b50565b60006a636f6e736f6c652e6c6f679050600080835160208501845afa505050565b610708819050919050565b610710610f57565b565b600073ffffffffffffffffffffffffffffffffffffffff82169050919050565b600061073d82610712565b9050919050565b61074d81610732565b82525050565b60006020820190506107686000830184610744565b92915050565b6000819050919050565b6107818161076e565b82525050565b600060208201905061079c6000830184610778565b92915050565b6000604051905090565b600080fd5b600080fd5b600080fd5b600080fd5b6000601f19601f8301169050919050565b7f4e487b7100000000000000000000000000000000000000000000000000000000600052604160045260246000fd5b610809826107c0565b810181811067ffffffffffffffff82111715610828576108276107d1565b5b80604052505050565b600061083b6107a2565b90506108478282610800565b919050565b600067ffffffffffffffff821115610867576108666107d1565b5b610870826107c0565b9050602081019050919050565b82818337600083830152505050565b600061089f61089a8461084c565b610831565b9050828152602081018484840111156108bb576108ba6107bb565b5b6108c684828561087d565b509392505050565b600082601f8301126108e3576108e26107b6565b5b81356108f384826020860161088c565b91505092915050565b600060208284031215610912576109116107ac565b5b600082013567ffffffffffffffff8111156109305761092f6107b1565b5b61093c848285016108ce565b91505092915050565b61094e81610732565b811461095957600080fd5b50565b60008135905061096b81610945565b92915050565b600060208284031215610987576109866107ac565b5b60006109958482850161095c565b91505092915050565b60008115159050919050565b6109b38161099e565b82525050565b60006020820190506109ce60008301846109aa565b92915050565b600081519050919050565b600082825260208201905092915050565b60005b83811015610a0e5780820151818401526020810190506109f3565b60008484015250505050565b6000610a25826109d4565b610a2f81856109df565b9350610a3f8185602086016109f0565b610a48816107c0565b840191505092915050565b60006020820190508181036000830152610a6d8184610a1a565b905092915050565b7f4e6f7420746865204f776e657200000000000000000000000000000000000000600082015250565b6000610aab600d836109df565b9150610ab682610a75565b602082019050919050565b60006020820190508181036000830152610ada81610a9e565b9050919050565b600081905092915050565b50565b6000610afc600083610ae1565b9150610b0782610aec565b600082019050919050565b6000610b1d82610aef565b9150819050919050565b7f4661696c656420746f2073656e64204574686572000000000000000000000000600082015250565b6000610b5d6014836109df565b9150610b6882610b27565b602082019050919050565b60006020820190508181036000830152610b8c81610b50565b9050919050565b7f4e487b7100000000000000000000000000000000000000000000000000000000600052602260045260246000fd5b60006002820490506001821680610bda57607f821691505b602082108103610bed57610bec610b93565b5b50919050565b60008190508160005260206000209050919050565b60006020601f8301049050919050565b600082821b905092915050565b600060088302610c557fffffffffffffffffffffffffffffffffffffffffffffffffffffffffffffffff82610c18565b610c5f8683610c18565b95508019841693508086168417925050509392505050565b6000819050919050565b6000610c9c610c97610c928461076e565b610c77565b61076e565b9050919050565b6000819050919050565b610cb683610c81565b610cca610cc282610ca3565b848454610c25565b825550505050565b600090565b610cdf610cd2565b610cea818484610cad565b505050565b5b81811015610d0e57610d03600082610cd7565b600181019050610cf0565b5050565b601f821115610d5357610d2481610bf3565b610d2d84610c08565b81016020851015610d3c578190505b610d50610d4885610c08565b830182610cef565b50505b505050565b600082821c905092915050565b6000610d7660001984600802610d58565b1980831691505092915050565b6000610d8f8383610d65565b9150826002028217905092915050565b610da8826109d4565b67ffffffffffffffff811115610dc157610dc06107d1565b5b610dcb8254610bc2565b610dd6828285610d12565b600060209050601f831160018114610e095760008415610df7578287015190505b610e018582610d83565b865550610e69565b601f198416610e1786610bf3565b60005b82811015610e3f57848901518255600182019150602085019450602081019050610e1a565b86831015610e5c5784890151610e58601f891682610d65565b8355505b6001600288020188555050505b505050505050565b7f4e487b7100000000000000000000000000000000000000000000000000000000600052601160045260246000fd5b6000610eab8261076e565b9150610eb68361076e565b9250828201905080821115610ece57610ecd610e71565b5b92915050565b60006060820190508181036000830152610eee8186610a1a565b9050610efd60208301856109aa565b610f0a6040830184610778565b949350505050565b60006060820190508181036000830152610f2c8186610a1a565b90508181036020830152610f408185610a1a565b9050610f4f6040830184610744565b949350505050565b7f4e487b7100000000000000000000000000000000000000000000000000000000600052605160045260246000fdfe53657474696e67206e6577206772656574696e6720272573272066726f6d202573a264697066735822122050f04667fe85ff3e9265e4d586b134c72a99588cc27b87371721824f6f671f7064736f6c634300081400334275696c64696e6720556e73746f707061626c65204170707320696e205370616e697368212121",
  "devdoc": {
    "author": "BuidlGuidl",
    "kind": "dev",
    "methods": {
      "setGreeting(string)": {
        "params": {
          "_newGreeting": "(string memory) - new greeting to save on the contract"
        }
      }
    },
    "version": 1
  },
  "userdoc": {
    "kind": "user",
    "methods": {
      "setGreeting(string)": {
        "notice": "Function that allows anyone to change the state variable \"greeting\" of the contract and increase the counters"
      },
      "withdraw()": {
        "notice": "Function that allows the owner to withdraw all the Ether in the contract The function can only be called by the owner of the contract as defined by the isOwner modifier"
      }
    },
    "notice": "A smart contract that allows changing a state variable of the contract and tracking the changes It also allows the owner to withdraw the Ether in the contract",
    "version": 1
  },
  "storageLayout": {
    "storage": [
      {
        "astId": 746,
        "contract": "contracts/YourContract.sol:YourContract",
        "label": "owner",
        "offset": 0,
        "slot": "0",
        "type": "t_address"
      },
      {
        "astId": 749,
        "contract": "contracts/YourContract.sol:YourContract",
        "label": "greeting",
        "offset": 0,
        "slot": "1",
        "type": "t_string_storage"
      },
      {
        "astId": 752,
        "contract": "contracts/YourContract.sol:YourContract",
        "label": "premium",
        "offset": 0,
        "slot": "2",
        "type": "t_bool"
      },
      {
        "astId": 755,
        "contract": "contracts/YourContract.sol:YourContract",
        "label": "totalCounter",
        "offset": 0,
        "slot": "3",
        "type": "t_uint256"
      },
      {
        "astId": 759,
        "contract": "contracts/YourContract.sol:YourContract",
        "label": "userGreetingCounter",
        "offset": 0,
        "slot": "4",
        "type": "t_mapping(t_address,t_uint256)"
      }
    ],
    "types": {
      "t_address": {
        "encoding": "inplace",
        "label": "address",
        "numberOfBytes": "20"
      },
      "t_bool": {
        "encoding": "inplace",
        "label": "bool",
        "numberOfBytes": "1"
      },
      "t_mapping(t_address,t_uint256)": {
        "encoding": "mapping",
        "key": "t_address",
        "label": "mapping(address => uint256)",
        "numberOfBytes": "32",
        "value": "t_uint256"
      },
      "t_string_storage": {
        "encoding": "bytes",
        "label": "string",
        "numberOfBytes": "32"
      },
      "t_uint256": {
        "encoding": "inplace",
        "label": "uint256",
        "numberOfBytes": "32"
      }
    }
  }
}